:03000000020006F5
:03005F0002000399
:0300030002009D5B
:10006200AE82AF837C007D00C3EC9EED9F502B7A65
:10007200007B00C3EA9EEB9F501978007900C3E829
:100082009EE99F500708B800F50980F20ABA00E31A
:100092000B80E00CBC00D10D80CE22759201D29172
:0B00A20075900190000A12006280FEC1
:06003500E478FFF6D8FD9F
:100013007900E94400601B7A009000B1780175A073
:1000230000E493F2A308B8000205A0D9F4DAF2754C
:02003300A0FF2C
:10003B007800E84400600A790175A000E4F309D860
:10004B00FC7800E84400600C7900900001E4F0A318
:04005B00D8FCD9FAFA
:0D0006007581071200ADE582600302000362
:0400AD007582002236
:00000001FF
